:020000040800F2
:1000000000280020A90F0008ED0D0008F30D0008DE
:10001000F90D0008FF0D0008050E000800000000A3
:100020000000000000000000000000000B0E0008AF
:10003000170E000800000000230E00082F0E000815
:10004000F10F0008F10F0008F10F0008F10F000890
:10005000F10F0008F10F0008F10F0008F10F000880
:10006000F10F0008F10F0008F10F0008F10F000870
:10007000F10F0008F10F0008F10F0008F10F000860
:10008000F10F0008F10F0008F10F0008F10F000850
:10009000F10F0008F10F0008F10F0008F10F000840
:1000A000F10F0008F10F0008F10F0008F10F000830
:1000B0003D0E0008F10F000800000000F10F0008DD
:1000C000F10F00080000000000000000F10F000820
:1000D00000000000F10F0008F10F00080000000010
:1000E000F10F0008F10F0008F10F000800000000F8
:1000F0000000000000000000000000000000000000
:0C01000000000000000000005FF808F1A3
:10010C0010B5054C237833B9044B13B10448AFF345
:10011C0000800123237010BD4C0100200000000062
:10012C004026000808B5034B1BB103490348AFF345
:10013C00008008BD0000000050010020402600088F
:10014C0080B582B000AF78607B681B68DBB21A4662
:10015C0008211F4801F04BFA7B6804331B68DBB2A3
:10016C001A4610211A4801F042FA7B6808331B68C2
:10017C00DBB21A462021164801F039FA7B680C33A1
:10018C001B68DBB21A464021114801F030FA7B683B
:10019C0010331B68DBB21A4680210D4801F027FA98
:1001AC007B6814331B68DBB21A464FF48071084825
:1001BC0001F01DFA7B6818331B68DBB21A464FF44A
:1001CC000071034801F013FA00BF0837BD4680BD2B
:1001DC00000C014080B582B000AF78607B68092BC1
:1001EC003ED801A252F823F01D0200082502000897
:1001FC002D020008350200083D02000845020008E7
:10020C004D020008550200085D0200086502000856
:10021C001548FFF795FF23E01448FFF791FF1FE007
:10022C001348FFF78DFF1BE01248FFF789FF17E01B
:10023C001148FFF785FF13E01048FFF781FF0FE02F
:10024C000F48FFF77DFF0BE00E48FFF779FF07E043
:10025C000D48FFF775FF03E00C48FFF771FF00BF77
:10026C0000BF0837BD4680BD000000201C000020E8
:10027C003800002054000020700000208C0000206A
:10028C00A8000020C400002068010020E00000202D
:10029C0080B483B000AF7860094A7B6852F8233091
:1002AC00012B06D1064A7B68002142F8231001235A
:1002BC0000E0002318460C37BD4680BC704700BFD9
:1002CC00C001002080B582B000AF00237B60D8E075
:1002DC006F4A7B6852F823206E497B6841F82320D3
:1002EC006D4A7B6852F8232069497B6841F82320CA
:1002FC007B68022B1FD07B68022B27DC7B68002BD2
:10030C0003D07B68012B0BD020E00121634801F066
:10031C0057F903461946604A7B6842F8231016E0E9
:10032C0002215E4801F04CF9034619465A4A7B6893
:10033C0042F823100BE00421584801F041F9034620
:10034C001946554A7B6842F8231000E000BF514A19
:10035C007B6852F823204E497B6851F823309A422F
:10036C0040F08C804A4A7B6852F823204A497B68CB
:10037C0051F823309A4240F08180474A7B6852F80A
:10038C00232047497B6841F82320464A7B6852F872
:10039C0023300D2B46D00D2B69DC0B2B0DD00C2BE9
:1003AC0065D13F4A7B6852F82330002B61D13D4A1E
:1003BC007B680B2142F823105BE0394A7B6852F8CA
:1003CC002330012B0FD1384A7B68012142F82310CE
:1003DC00344A7B680C2142F82310344A7B68002194
:1003EC0042F8231051E0314A7B6852F823305A1CF2
:1003FC002E497B6841F823202C4A7B6852F8233025
:10040C00632B38DD274A7B680D2142F82310274ADD
:10041C007B68002142F82310254A7B68012142F8B1
:10042C00231028E01E4A7B6852F82330012B09D197
:10043C001C4A7B680C2142F823101C4A7B68002163
:10044C0042F82310194A7B6852F823305A1C17497A
:10045C007B6841F82320154A7B6852F82330142B13
:10046C000BD1124A7B68002142F8231005E000BF33
:10047C0004E000BF02E000BF00E000BF7B68013376
:10048C007B607B68022B7FF723AF0837BD4680BDAE
:10049C009C010020A801002090010020000C0140CC
:1004AC0084010020FC000020C0010020B4010020C9
:1004BC00CC01002080B500AF012202210E4801F0D2
:1004CC0096F8012210210C4801F091F80122042128
:1004DC00094801F08CF801222021074801F087F827
:1004EC0001220821044801F082F80122402102482F
:1004FC0001F07DF800BF80BD0008014080B500AF61
:10050C00FFF7D8FF4F4B1B68032B00F28F8001A223
:10051C0052F823F03105000873050008B5050008F2
:10052C00F705000800220221474801F060F800227C
:10053C004021454801F05BF8444B1B68002B06DC5E
:10054C00404B01221A60424B1B68404A1360414BDE
:10055C001B68002B6CDC3B4B01221A603E4B1B686A
:10056C003C4A136064E000220221374801F03FF856
:10057C0000222021344801F03AF8344B1B68002B40
:10058C0006DC304B02221A60344B1B682F4A136076
:10059C00304B1B68002B4DDC2A4B02221A602C4B73
:1005AC001B682C4A136045E000220821264801F004
:1005BC001EF800221021244801F019F8234B1B6867
:1005CC00002B06DC1F4B03221A60234B1B681F4AAF
:1005DC001360204B1B68002B2EDC1A4B03221A6075
:1005EC001B4B1B681B4A136026E000220421164893
:1005FC0000F0FDFF00221021134800F0F8FF134B10
:10060C001B68002B06DC0F4B00221A60104B1B687A
:10061C000E4A13600F4B1B68002B0FDC094B00229A
:10062C001A600E4B1B680B4A136007E000BF06E014
:10063C0000BF04E000BF02E000BF00E000BF00BF4D
:10064C0080BD00BFD801002000080140DC01002063
:10065C0008010020E0010020100100200C01002006
:10066C0080B582B000AF78607B68032B52D801A2B2
:10067C0052F823F091060008B5060008D9060008C8
:10068C00FD060008264B1B681846FFF7A3FD012248
:10069C004FF40051234800F0AAFF00224FF4806170
:1006AC00204800F0A4FF36E01D4B5B681846FFF7AE
:1006BC0091FD00224FF400611A4800F098FF0122CE
:1006CC004FF48061174800F092FF24E0144B9B68B4
:1006DC001846FFF77FFD00224FF48051114800F0BF
:1006EC0086FF01224FF400610E4800F080FF12E0FB
:1006FC000B4BDB681846FFF76DFD00224FF40051E1
:10070C00084800F074FF01224FF48051054800F0B6
:10071C006EFF00E000BF00BF0837BD4680BD00BFC4
:10072C00F0010020000C014080B483B000AF786071
:10073C0039607B68184A82FB03129210DB17D31ABC
:10074C00164A13607968144B83FB01239A10CB175C
:10075C00D21A13469B0013445B00CA1A0F4B5A6003
:10076C003B680D4A82FB03129210DB17D31A0B4A1B
:10077C0093603968084B83FB01239A10CB17D21A6C
:10078C0013469B0013445B00CA1A044BDA6000BF8B
:10079C000C37BD4680BC704767666666F00100206A
:1007AC0080B500AF094B1B681846FFF759FF074B84
:1007BC001B680133054A1360044B1B68032B02DDD5
:1007CC00024B00221A6000BF80BD00BF1002002047
:1007DC0080B582B000AF78600F4B1B680F4A52F89F
:1007EC0023200D4B1B680E4931F813301946104667
:1007FC0000F015FF084B1B680A4A52F82320064BE1
:10080C001B68094931F813301946104600F007FFF0
:10081C0000BF0837BD4680BD3C01002014010020FC
:10082C002C010020200100203401002080B400AFF6
:10083C00074B1A68064B5968054B9B680B449A4248
:10084C000CBF01230023DBB21846BD4680BC7047A9
:10085C00E401002080B500AF0020FFF719FD03462E
:10086C00002B49D03B4B1B6801333A4A1360394B80
:10087C001968394B83FB0132CB17D21A13465B0034
:10088C001344CA1A334B1A60344B1B680133334A76
:10089C001360324B1B685A4203F0030302F003024D
:1008AC0058BF53422D4A13602C4B1B68002B21D18F
:1008BC00284B4FF0FF321A60FFF7B8FF0346012BAD
:1008CC000CD1274B1B68274A1360254B5B68264AC3
:1008DC001360234B9B68254A13600BE0214B1B686C
:1008EC001F4A1360204B1B681D4A53601F4B1B682B
:1008FC001B4A9360FFF7DEFD0120FFF7C9FC03469E
:10090C00002B08D0134B1B68194A52F823200132D4
:10091C00174941F823200220FFF7BAFC0346002BAD
:10092C0015D00C4B1B680E4A52F82310094B1B6850
:10093C000F4A52F82320074B1B680A44084941F818
:10094C002320044B1B680A4A002142F8231000BFE5
:10095C0080BD00BF3C0100205655555514020020A7
:10096C00E401002008010020100100200C010020EF
:10097C000002002080B500AF0B4B1B68002B11D17F
:10098C000A4B1B68013B094A1360094B1B68013B6E
:10099C00074A1360054B1B68054A12681146184636
:1009AC00FFF7C2FE00BF80BD14020020DC01002056
:1009BC00E001002080B500AF054B1B68002B04D074
:1009CC00044B1B681846FFF703FF00BF80BD00BF38
:1009DC00140200203C01002080B500AF0C4B1B68BA
:1009EC00002B02D1FFF78AFD10E00A4B1B680A4A64
:1009FC0052F82320074B1B68084951F82330134445
:100A0C00044A126811461846FFF78EFE00BF80BDDF
:100A1C00140200203C010020E40100200002002010
:100A2C0080B500AF194B1B68194A1360194B1B6832
:100A3C00174A5360184B1B68154A9360FFF73AFD31
:100A4C00124B1B68154A1360134B1B68144A136036
:100A5C00FFF754FD01224FF48061124800F0C7FDEE
:100A6C0001224FF400610F4800F0C1FD01224FF448
:100A7C0080510C4800F0BBFD01224FF40051094895
:100A8C0000F0B5FDFFF78CFE00BF80BD0801002013
:100A9C00E4010020100100200C010020DC010020EA
:100AAC00E0010020000C014080B500AF00F09CFA82
:100ABC0000F046F800F0CCF800F07EF81B4801F08E
:100ACC00F5F9FFF7ADFF642000F0C2F9192000F032
:100ADC00D3F90A2000F0E4F9322000F0F5F9144BB8
:100AEC001B68012B04D1FFF745FF642000F0B0F91F
:100AFC00104B1B68012B04D1FFF75CFF322000F078
:100B0C00E3F90D4B1B68012B04D1FFF749FE1920AB
:100B1C0000F0B2F9094B1B68012BE0D1FFF79AFEEC
:100B2C00FFF75AFF0A2000F0BBF9D8E718020020A3
:100B3C006002002078020020680200207002002071
:100B4C0080B590B000AF07F1180328220021184699
:100B5C0001F044FD3B1D00221A605A609A60DA6075
:100B6C001A610223BB610123BB621023FB620023C9
:100B7C007B6307F11803184600F06AFD0346002B4F
:100B8C0001D000F0D1F80F237B600023BB60002361
:100B9C00FB6000233B6100237B613B1D0021184659
:100BAC0000F0D8FF0346002B01D000F0BDF800BFC9
:100BBC004037BD4680BD000080B586B000AF07F160
:100BCC00080300221A605A609A60DA603B460022E1
:100BDC001A605A601D4B4FF080421A601B4B41F655
:100BEC003F725A60194B00229A60184B0922DA6046
:100BFC00164B00221A61154B00229A61134801F022
:100C0C0005F90346002B01D000F08EF84FF4805309
:100C1C00BB6007F1080319460C4801F09BFA034628
:100C2C00002B01D000F080F800233B6000237B6098
:100C3C003B461946054801F067FC0346002B01D0E2
:100C4C0000F072F800BF1837BD4680BD18020020B6
:100C5C0080B586B000AF07F1080300221A605A6015
:100C6C009A60DA60274B9B69264A43F00403936130
:100C7C00244B9B6903F004037B607B68214B9B69CD
:100C8C00204A43F0080393611E4B9B6903F0080351
:100C9C003B603B6800227E211B4800F0A8FC002230
:100CAC0043F6F871194800F0A2FC7E23BB600123C7
:100CBC00FB6000233B6102237B6107F108031946AB
:100CCC00114800F001FB0723BB600023FB600123EC
:100CDC003B6107F1080319460C4800F0F5FA43F69E
:100CEC00F873BB600123FB6000233B6102237B6133
:100CFC0007F108031946054800F0E6FA00BF18375B
:100D0C00BD4680BD0010024000080140000C0140AF
:100D1C0080B582B000AF786000F0EAF8FFF7D2FA45
:100D2C0000BF0837BD4680BD80B400AF72B600BFAF
:100D3C00FEE7000080B485B000AF154B9B69144AE8
:100D4C0043F001039361124B9B6903F00103BB60F9
:100D5C00BB680F4BDB690E4A43F08053D3610C4BDD
:100D6C00DB6903F080537B607B680A4B5B68FB603C
:100D7C00FB6823F0E063FB60FB6843F00073FB60EF
:100D8C00044AFB68536000BF1437BD4680BC7047F3
:100D9C00001002400000014080B584B000AF7860C4
:100DAC007B681B68B3F1804F13D10C4BDB690B4A8A
:100DBC0043F00103D361094BDB6903F00103FB60D2
:100DCC00FB68002200211C2000F047FA1C2000F0D8
:100DDC0060FA00BF1037BD4680BD00BF0010024056
:100DEC0080B400AFFEE780B400AFFEE780B400AF84
:100DFC00FEE780B400AFFEE780B400AFFEE780B43E
:100E0C0000AF00BFBD4680BC704780B400AF00BFD0
:100E1C00BD4680BC704780B400AF00BFBD4680BCEF
:100E2C00704780B500AF00F025F900BF80BD000011
:100E3C0080B500AF024801F085F800BF80BD00BF4F
:100E4C001802002080B400AF00BFBD4680BC7047C4
:100E5C0080B483B000AF7860054A7B681360054BA3
:100E6C0000221A6000BF0C37BD4680BC704700BF23
:100E7C00640200206002002080B483B000AF786070
:100E8C00054A7B681360054B00221A6000BF0C37C3
:100E9C00BD4680BC704700BF6C0200206802002079
:100EAC0080B483B000AF7860054A7B681360054B53
:100EBC0000221A6000BF0C37BD4680BC704700BFD3
:100ECC00740200207002002080B483B000AF786000
:100EDC00054A7B681360054B00221A6000BF0C3773
:100EEC00BD4680BC704700BF7C0200207802002009
:100EFC0080B400AF214B1B68002B0BDD1F4B1B6814
:100F0C00013B1E4A13601D4B1B68002B02DC1C4B63
:100F1C0001221A601B4B1B68002B0BDD194B1B6845
:100F2C00013B184A1360174B1B68002B02DC164B55
:100F3C0001221A60154B1B68002B0BDD134B1B6831
:100F4C00013B124A1360114B1B68002B02DC104B47
:100F5C0001221A600F4B1B68002B0BDD0D4B1B681D
:100F6C00013B0C4A13600B4B1B68002B02DC0A4B39
:100F7C0001221A6000BFBD4680BC7047640200208D
:100F8C00600200206C020020680200207402002025
:100F9C00700200207C02002078020020FFF752FF34
:100FAC000B480C490C4A002302E0D458C4500433BB
:100FBC00C4188C42F9D3094A094C002301E0136090
:100FCC000432A242FBD301F011FBFFF76DFD704719
:100FDC00000000204C010020842600084C01002059
:100FEC0084020020FEE7000080B500AF084B1B68B0
:100FFC00074A43F010031360032000F023F90F207D
:10100C0000F008F8FFF796FE0023184680BD00BFDD
:10101C000020024080B582B000AF7860124B1A6895
:10102C00124B1B7819464FF47A73B3FBF1F3B2FBF6
:10103C00F3F3184600F03BF90346002B01D00123D3
:10104C000EE07B680F2B0AD8002279684FF0FF3036
:10105C0000F003F9064A7B681360002300E00123CB
:10106C0018460837BD4680BD4001002048010020CD
:10107C004401002080B400AF054B1B781A46054B89
:10108C001B681344034A136000BFBD4680BC704705
:10109C00480100208002002080B400AF024B1B6886
:1010AC001846BD4680BC70478002002080B485B0D5
:1010BC0000AF78607B6803F00703FB600C4BDB68C8
:1010CC00BB60BA684FF6FF031340BB60FB681A02A3
:1010DC00BB68134343F0BF6343F40033BB60044A63
:1010EC00BB68D36000BF1437BD4680BC704700BFDF
:1010FC0000ED00E080B400AF044BDB681B0A03F08A
:10110C0007031846BD4680BC704700BF00ED00E0E9
:10111C0080B483B000AF0346FB7197F90730002B06
:10112C000BDBFB7903F01F02064997F907305B09CB
:10113C00012000FA02F241F8232000BF0C37BD4613
:10114C0080BC704700E100E080B483B000AF034680
:10115C003960FB7197F90730002B0ADB3B68DAB278
:10116C000C4997F907301201D2B20B4483F80023D3
:10117C000AE03B68DAB20849FB7903F00F03043B41
:10118C001201D2B20B441A7600BF0C37BD4680BC9C
:10119C00704700BF00E100E000ED00E080B489B0D2
:1011AC0000AFF860B9607A60FB6803F00703FB617D
:1011BC00FB69C3F10703042B28BF0423BB61FB6944
:1011CC000433062B02D9FB69033B00E000237B614F
:1011DC004FF0FF32BB6902FA03F3DA43BB681A40E3
:1011EC007B699A404FF0FF317B6901FA03F3D943D5
:1011FC007B680B40134318462437BD4680BC7047B0
:10120C0080B582B000AF78607B68013BB3F1807F22
:10121C0001D301230FE00A4A7B68013B53600F2185
:10122C004FF0FF30FFF790FF054B00229A60044B04
:10123C0007221A60002318460837BD4680BD00BF40
:10124C0010E000E080B582B000AF78607868FFF7FE
:10125C002DFF00BF0837BD4680BD80B586B000AFFE
:10126C000346B9607A60FB7300237B61FFF742FF92
:10127C0078617A68B9687869FFF790FF024697F948
:10128C000F3011461846FFF75FFF00BF1837BD46F9
:10129C0080BD80B582B000AF0346FB7197F9073073
:1012AC001846FFF735FF00BF0837BD4680BD80B537
:1012BC0082B000AF78607868FFF7A2FF034618464B
:1012CC000837BD4680BD000080B48BB000AF78609D
:1012DC00396000237B6200233B6261E101227B6A5F
:1012EC0002FA03F3FB613B681B68FA691340BB61AC
:1012FC00BA69FB699A4240F050813B685B68974A37
:10130C0093425ED0954A934275D8954A934258D0F1
:10131C00934A93426FD8934A934252D0914A934244
:10132C0069D8914A93424CD08F4A934263D88F4AE2
:10133C00934246D08D4A93425DD8122B2AD8122B59
:10134C0059D801A252F823F0CF130008A9130008B2
:10135C00BB130008FD130008031400080314000855
:10136C0003140008031400080314000803140008F5
:10137C0003140008031400080314000803140008E5
:10138C00031400080314000803140008B113000828
:10139C00C5130008764A934213D02CE03B68DB68F7
:1013AC003B6229E03B68DB6804333B6224E03B682A
:1013BC00DB6808333B621FE03B68DB680C333B6245
:1013CC001AE03B689B68002B02D104233B6213E0BC
:1013DC003B689B68012B05D108233B627B68FA694B
:1013EC001A6109E008233B627B68FA695A6103E0E1
:1013FC0000233B6200E000BFBB69FF2B01D87B6878
:10140C0001E07B6804337B61BB69FF2B02D87B6AEC
:10141C009B0002E07B6A083B9B003B617B691A687E
:10142C000F213B6901FA03F3DB431A40396A3B692C
:10143C0001FA03F31A437B691A603B685B6803F09B
:10144C008053002B00F0A9804A4B9B69494A43F01A
:10145C0001039361474B9B6903F00103BB60BB68BD
:10146C00454A7B6A9B08023352F82330FB607B6A47
:10147C0003F003039B000F2202FA03F3DB43FA6829
:10148C001340FB607B683D4A93420DD07B683C4A1D
:10149C00934207D07B683B4A934201D1022304E07C
:1014AC00032302E0012300E000237A6A02F0030226
:1014BC0092009340FA681343FB602F497B6A9B08A8
:1014CC000233FA6841F823203B685B6803F480130D
:1014DC00002B06D02C4B9A682B49BB6913438B60AD
:1014EC0006E0294B9A68BB69DB43274913408B60A4
:1014FC003B685B6803F40013002B06D0224BDA68C0
:10150C002149BB691343CB6006E01F4BDA68BB690A
:10151C00DB431D491340CB603B685B6803F400332D
:10152C00002B06D0184B5A681749BB6913434B6004
:10153C0006E0154B5A68BB69DB43134913404B60FB
:10154C003B685B6803F48033002B1FD00E4B1A688A
:10155C000D49BB6913430B601FE000BF0000321044
:10156C0000003110000022100000211000001210A9
:10157C000000111000100240000001400008014062
:10158C00000C014000100140000401400B4B1A6894
:10159C00BB69DB43094913400B607B6A01337B62F7
:1015AC003B681A687B6A22FA03F3002B7FF496AE31
:1015BC0000BF00BF2C37BD4680BC70470004014003
:1015CC0080B485B000AF78600B467B807B689A68EE
:1015DC007B881340002B02D00123FB7301E0002316
:1015EC00FB73FB7B18461437BD4680BC704780B438
:1015FC0083B000AF78600B467B8013467B707B78A2
:10160C00002B03D07A887B681A6103E07B881A046C
:10161C007B681A6100BF0C37BD4680BC704780B434
:10162C0085B000AF78600B467B807B68DB68FB6025
:10163C007A88FB6813401A04FB68D9437B880B40FB
:10164C001A437B681A6100BF1437BD4680BC7047D3
:10165C0080B586B000AF78607B68002B01D1012388
:10166C0072E27B681B6803F00103002B00F087809B
:10167C00924B5B6803F00C03042B0CD08F4B5B6814
:10168C0003F00C03082B12D18C4B5B6803F48033F2
:10169C00B3F5803F0BD1894B1B6803F40033002B4F
:1016AC006CD07B685B68002B68D101234CE27B68B3
:1016BC005B68B3F5803F06D1804B1B687F4A43F4CF
:1016CC00803313602EE07B685B68002B0CD17B4B66
:1016DC001B687A4A23F480331360784B1B68774A73
:1016EC0023F4802313601DE07B685B68B3F5A02FA7
:1016FC000CD1724B1B68714A43F4802313606F4BFF
:10170C001B686E4A43F4803313600BE06B4B1B6811
:10171C006A4A23F480331360684B1B68674A23F4CE
:10172C00802313607B685B68002B13D0FFF7B4FC3D
:10173C00386108E0FFF7B0FC02463B69D31A642B12
:10174C0001D9032300E25D4B1B6803F40033002B2B
:10175C00F0D014E0FFF7A0FC386108E0FFF79CFC28
:10176C0002463B69D31A642B01D90323ECE1534B9A
:10177C001B6803F40033002BF0D100E000BF7B6842
:10178C001B6803F00203002B63D04C4B5B6803F027
:10179C000C03002B0BD0494B5B6803F00C03082B9C
:1017AC001CD1464B5B6803F48033002B16D1434BA2
:1017BC001B6803F00203002B05D07B681B69012B0F
:1017CC0001D00123C0E13D4B1B6823F0F8027B687C
:1017DC005B69DB00394913430B603AE07B681B699A
:1017EC00002B20D0364B01221A60FFF755FC3861D4
:1017FC0008E0FFF751FC02463B69D31A022B01D9D2
:10180C000323A1E12D4B1B6803F00203002BF0D046
:10181C002A4B1B6823F0F8027B685B69DB002749C5
:10182C0013430B6015E0264B00221A60FFF734FCC3
:10183C00386108E0FFF730FC02463B69D31A022BF3
:10184C0001D9032380E11D4B1B6803F00203002B1D
:10185C00F0D17B681B6803F00803002B3AD07B683F
:10186C009B69002B19D0174B01221A60FFF714FC4F
:10187C00386108E0FFF710FC02463B69D31A022BD3
:10188C0001D9032360E10D4B5B6A03F00203002BCB
:10189C00F0D0012000F09CFA1CE00A4B00221A60E8
:1018AC00FFF7FAFB38610FE0FFF7F6FB02463B69E6
:1018BC00D31A022B08D9032346E100BF00100240C3
:1018CC000000424280044242924B5B6A03F00203E6
:1018DC00002BE9D17B681B6803F00403002B00F09C
:1018EC00A6800023FB758B4BDB6903F08053002B28
:1018FC000DD1884BDB69874A43F08053D361854B0C
:10190C00DB6903F08053BB60BB680123FB75824B22
:10191C001B6803F48073002B18D17F4B1B687E4A25
:10192C0043F480731360FFF7B7FB386108E0FFF7EF
:10193C00B3FB02463B69D31A642B01D9032303E1A1
:10194C00754B1B6803F48073002BF0D07B68DB684D
:10195C00012B06D16F4B1B6A6E4A43F001031362D5
:10196C002DE07B68DB68002B0CD16A4B1B6A694A43
:10197C0023F001031362674B1B6A664A23F00403CE
:10198C0013621CE07B68DB68052B0CD1614B1B6A76
:10199C00604A43F0040313625E4B1B6A5D4A43F0DA
:1019AC00010313620BE05B4B1B6A5A4A23F00103E1
:1019BC001362584B1B6A574A23F0040313627B686B
:1019CC00DB68002B15D0FFF767FB38610AE0FFF7E7
:1019DC0063FB02463B69D31A41F28832934201D928
:1019EC000323B1E04B4B1B6A03F00203002BEED038
:1019FC0014E0FFF751FB38610AE0FFF74DFB02469C
:101A0C003B69D31A41F28832934201D903239BE0FC
:101A1C00404B1B6A03F00203002BEED1FB7D012B24
:101A2C0005D13C4BDB693B4A23F08053D3617B6887
:101A3C00DB69002B00F08780364B5B6803F00C03EE
:101A4C00082B61D07B68DB69022B46D1334B00221B
:101A5C001A60FFF721FB386108E0FFF71DFB024617
:101A6C003B69D31A022B01D903236DE0294B1B6868
:101A7C0003F00073002BF0D17B681B6AB3F5803F39
:101A8C0008D1244B5B6823F400327B689B682149A6
:101A9C0013434B601F4B5B6823F474127B68196A09
:101AAC007B685B6A0B431B4913434B601B4B012246
:101ABC001A60FFF7F1FA386108E0FFF7EDFA024619
:101ACC003B69D31A022B01D903233DE0114B1B6850
:101ADC0003F00073002BF0D035E0104B00221A609D
:101AEC00FFF7DAFA386108E0FFF7D6FA02463B69ED
:101AFC00D31A022B01D9032326E0064B1B6803F0F3
:101B0C000073002BF0D11EE07B68DB69012B07D141
:101B1C00012319E0001002400070004060004242B6
:101B2C000B4B5B68FB60FB6803F480327B681B6AC1
:101B3C009A4206D1FB6803F470127B685B6A9A4286
:101B4C0001D0012300E0002318461837BD4680BDA4
:101B5C000010024080B584B000AF786039607B68BB
:101B6C00002B01D10123D0E06A4B1B6803F0070363
:101B7C003A689A4210D9674B1B6823F007026549F3
:101B8C003B6813430B60634B1B6803F007033A6815
:101B9C009A4201D00123B8E07B681B6803F0020372
:101BAC00002B20D07B681B6803F00403002B05D0AE
:101BBC00594B5B68584A43F4E06353607B681B687D
:101BCC0003F00803002B05D0534B5B68524A43F4D7
:101BDC0060535360504B5B6823F0F0027B689B684A
:101BEC004D4913434B607B681B6803F00103002BCA
:101BFC0040D07B685B68012B07D1474B1B6803F413
:101C0C000033002B15D101237FE07B685B68022B2E
:101C1C0007D1414B1B6803F00073002B09D1012342
:101C2C0073E03D4B1B6803F00203002B01D1012331
:101C3C006BE0394B5B6823F003027B685B683649C9
:101C4C0013434B60FFF728FAF8600AE0FFF724FA19
:101C5C000246FB68D31A41F28832934201D903231E
:101C6C0053E02D4B5B6803F00C027B685B689B00B8
:101C7C009A42EBD1274B1B6803F007033A689A4250
:101C8C0010D2244B1B6823F0070222493B681343F4
:101C9C000B60204B1B6803F007033A689A4201D093
:101CAC00012332E07B681B6803F00403002B08D08F
:101CBC00194B5B6823F4E0627B68DB6816491343BD
:101CCC004B607B681B6803F00803002B09D0124B98
:101CDC005B6823F460527B681B69DB000E4913437D
:101CEC004B6000F021F802460B4B5B681B0903F0BC
:101CFC000F030A49CB5C22FA03F3094A1360094B20
:101D0C001B681846FFF786F9002318461037BD46A6
:101D1C0080BD00BF00200240001002405826000881
:101D2C00400100204401002080B487B000AF0023A4
:101D3C00FB600023BB6000237B6100237B600023DE
:101D4C003B611E4B5B68FB60FB6803F00C03042BD0
:101D5C0002D0082B03D027E0194B3B6127E0FB682E
:101D6C009B0C03F00F03174AD35C7B60FB6803F4F6
:101D7C008033002B10D0114B5B685B0C03F001031C
:101D8C00114AD35CBB607B680D4A03FB02F2BB6853
:101D9C00B2FBF3F37B6104E07B680C4A02FB03F3B8
:101DAC007B617B693B6102E0054B3B6100BF3B699A
:101DBC0018461C37BD4680BC704700BF001002405F
:101DCC0000127A00682600087826000800093D00F9
:101DDC0080B485B000AF78600A4B1B680A4AA2FB3E
:101DEC0003235B0A7A6802FB03F3FB6000BFFB680A
:101DFC005A1EFA60002BF9D100BF00BF1437BD4644
:101E0C0080BC704740010020D34D621080B582B079
:101E1C0000AF78607B68002B01D1012341E07B6827
:101E2C0093F83D30DBB2002B06D17B68002283F89F
:101E3C003C207868FEF7B0FF7B68022283F83D20D7
:101E4C007B681A687B6804331946104600F06EFAFA
:101E5C007B68012283F846207B68012283F83E20B0
:101E6C007B68012283F83F207B68012283F84020A5
:101E7C007B68012283F841207B68012283F8422091
:101E8C007B68012283F843207B68012283F844207D
:101E9C007B68012283F845207B68012283F83D2072
:101EAC00002318460837BD4680BD000080B485B0BD
:101EBC0000AF78607B6893F83D30DBB2012B01D02A
:101ECC00012335E07B68022283F83D207B681B6888
:101EDC00DA687B681B6842F00102DA607B681B6879
:101EEC00164A934209D07B681B68B3F1804F04D02B
:101EFC007B681B68124A934211D17B681B689B68F4
:101F0C0003F00703FB60FB68062B10D07B681B6893
:101F1C001A687B681B6842F001021A6007E07B6854
:101F2C001B681A687B681B6842F001021A60002368
:101F3C0018461437BD4680BC704700BF002C0140CA
:101F4C000004004080B582B000AF78607B681B68ED
:101F5C001B6903F00203022B22D17B681B68DB6830
:101F6C0003F00203022B1BD17B681B686FF002028B
:101F7C001A617B6801221A777B681B689B6903F0E6
:101F8C000303002B03D0786800F0B4F905E07868FF
:101F9C0000F0A7F9786800F0B6F97B6800221A7790
:101FAC007B681B681B6903F00403042B22D17B683C
:101FBC001B68DB6803F00403042B1BD17B681B68D4
:101FCC006FF004021A617B6802221A777B681B6827
:101FDC009B6903F44073002B03D0786800F08AF9F6
:101FEC0005E0786800F07DF9786800F08CF97B6882
:101FFC0000221A777B681B681B6903F00803082B07
:10200C0022D17B681B68DB6803F00803082B1BD10B
:10201C007B681B686FF008021A617B6804221A77D0
:10202C007B681B68DB6903F00303002B03D0786823
:10203C0000F060F905E0786800F053F9786800F07A
:10204C0062F97B6800221A777B681B681B6903F0B6
:10205C001003102B22D17B681B68DB6803F0100384
:10206C00102B1BD17B681B686FF010021A617B6808
:10207C0008221A777B681B68DB6903F44073002B1A
:10208C0003D0786800F036F905E0786800F029F99B
:10209C00786800F038F97B6800221A777B681B6837
:1020AC001B6903F00103012B0ED17B681B68DB68F5
:1020BC0003F00103012B07D17B681B686FF0010251
:1020CC001A617868FEF724FE7B681B681B6903F0B5
:1020DC008003802B0ED17B681B68DB6803F08003C8
:1020EC00802B07D17B681B686FF080021A617868BF
:1020FC0000F06BFA7B681B681B6903F04003402BF4
:10210C000ED17B681B68DB6803F04003402B07D1C2
:10211C007B681B686FF040021A61786800F0FCF86D
:10212C007B681B681B6903F02003202B0ED17B6896
:10213C001B68DB6803F02003202B07D17B681B682E
:10214C006FF020021A61786800F036FA00BF083789
:10215C00BD4680BD80B584B000AF78603960002387
:10216C00FB737B6893F83C30012B01D10223B4E064
:10217C007B68012283F83C207B68022283F83D2097
:10218C007B681B689B68BB60BB6823F07703BB60F4
:10219C00BB6823F47F43BB607B681B68BA689A609A
:1021AC003B681B68B3F5005F3ED0B3F5005F00F2EF
:1021BC008780B3F5805F00F08680B3F5805F7FD8B1
:1021CC00702B1AD0702B7BD8602B50D0602B77D80B
:1021DC00502B3CD0502B73D8402B58D0402B6FD861
:1021EC00302B64D0302B6BD8202B60D0202B67D8B1
:1021FC00002B5CD0102B5AD062E07B6818683B68CF
:10220C0099683B685A683B68DB6800F05EF97B684C
:10221C001B689B68BB60BB6843F07703BB607B6843
:10222C001B68BA689A604FE07B6818683B689968CD
:10223C003B685A683B68DB6800F047F97B681B68B1
:10224C009A687B681B6842F480429A603CE07B6829
:10225C0018683B6859683B68DB681A4600F0BEF8A2
:10226C007B681B685021184600F015F92CE07B6840
:10227C0018683B6859683B68DB681A4600F0DCF864
:10228C007B681B686021184600F005F91CE07B6830
:10229C0018683B6859683B68DB681A4600F09EF882
:1022AC007B681B684021184600F0F5F80CE07B6851
:1022BC001A683B681B681946104600F0ECF803E0FE
:1022CC000123FB7300E000BF7B68012283F83D20F3
:1022DC007B68002283F83C20FB7B18461037BD46F8
:1022EC0080BD80B483B000AF786000BF0C37BD46B2
:1022FC0080BC704780B483B000AF786000BF0C37EF
:10230C00BD4680BC704780B483B000AF786000BF1E
:10231C000C37BD4680BC704780B483B000AF78608A
:10232C0000BF0C37BD4680BC7047000080B485B040
:10233C0000AF786039607B681B68FB607B68254A5E
:10234C00934207D07B68B3F1804F03D07B68224A5D
:10235C00934208D1FB6823F07003FB603B685B6819
:10236C00FA681343FB607B681A4A934207D07B6878
:10237C00B3F1804F03D07B68174A934208D1FB68B6
:10238C0023F44073FB603B68DB68FA681343FB6023
:10239C00FB6823F080023B685B691343FB607B683E
:1023AC00FA681A603B689A687B68DA623B681A685C
:1023BC007B689A627B68074A934203D13B681A692F
:1023CC007B681A637B6801225A6100BF1437BD46D3
:1023DC0080BC7047002C01400004004080B487B0E2
:1023EC0000AFF860B9607A60FB681B6A7B61FB68C0
:1023FC001B6A23F00102FB681A62FB689B693B6154
:10240C003B6923F0F0033B617B681B013A69134382
:10241C003B617B6923F00A037B617A69BB681343D8
:10242C007B61FB683A699A61FB687A691A6200BF42
:10243C001C37BD4680BC704780B487B000AFF860D5
:10244C00B9607A60FB681B6A7B61FB681B6A23F0CE
:10245C001002FB681A62FB689B693B613B6923F4C1
:10246C0070433B617B681B033A6913433B617B6997
:10247C0023F0A0037B61BB681B017A6913437B616A
:10248C00FB683A699A61FB687A691A6200BF1C376B
:10249C00BD4680BC704780B485B000AF78603960B1
:1024AC007B689B68FB60FB6823F07003FB603A68F9
:1024BC00FB68134343F00703FB607B68FA689A6080
:1024CC0000BF1437BD4680BC704780B487B000AFE6
:1024DC00F860B9607A603B60FB689B687B617B69E4
:1024EC0023F47F437B613B681A027B681A43BB6809
:1024FC0013437A6913437B61FB687A699A6000BF66
:10250C001C37BD4680BC704780B485B000AF786086
:10251C0039607B6893F83C30012B01D1022341E0F8
:10252C007B68012283F83C207B68022283F83D20E3
:10253C007B681B685B68FB607B681B689B68BB6087
:10254C00FB6823F07003FB603B681B68FA6813435D
:10255C00FB607B681B68FA685A607B681B68144ACE
:10256C00934209D07B681B68B3F1804F04D07B6821
:10257C001B68104A93420CD1BB6823F08003BB60EC
:10258C003B685B68BA681343BB607B681B68BA68BE
:10259C009A607B68012283F83D207B68002283F8D7
:1025AC003C20002318461437BD4680BC704700BF42
:1025BC00002C01400004004080B483B000AF786070
:1025CC0000BF0C37BD4680BC704780B483B000AFF1
:1025DC00786000BF0C37BD4680BC70470346024490
:1025EC00934200D1704703F8011BF9E770B5002640
:1025FC000C4D0D4C641BA410A64209D100F01AF826
:10260C0000260A4D0A4C641BA410A64205D170BDCD
:10261C0055F8043B98470136EEE755F8043B9847CC
:10262C000136F2E77C2600087C2600087C26000890
:10263C0080260008F8B500BFF8BC08BC9E46704761
:0C264C00F8B500BFF8BC08BC9E46704703
:10265800000000000000000001020304060708094A
:1026680002030405060708090A0B0C0D0E0F1010CB
:04267800010200005B
:04267C003101000820
:042680000D01000840
:102684000000000000000000000000000000000046
:102694000000000000000000010000000100000034
:1026A4000000000000000000010000000100000024
:1026B4000100000001000000000000000000000014
:1026C4000100000000000000000000000100000004
:1026D40000000000000000000000000000000000F6
:1026E40000000000010000000100000000000000E4
:1026F40001000000000000000000000001000000D4
:1027040001000000000000000000000000000000C4
:1027140001000000000000000000000001000000B3
:1027240000000000000000000000000001000000A4
:102734000000000000000000000000000000000095
:102744000000000000000000000000000000000085
:102754000100000001000000010000000100000071
:102764000000000000000000000000000000000065
:102774000100000000000000000000000C00000048
:102784000C0000000C000000050000000300000025
:102794000200000000080140000801400008014058
:1027A4000008014000080140000801400200040044
:1027B400080000001000200040000000FFFFFFFFA1
:0C27C4000024F4001000000001000000E0
:0400000508000FA937
:00000001FF
